:020000000528D1
:100008000628F72980312000941A882991188C290C
:10001800090000308A004A080B00612878288E28D9
:10002800A428BA283A293A293A293A293A293A29C8
:100038003A293A293A293A293A29D128F328F3289A
:10004800F328F328F328F328F328F328F3283A2988
:100058003A293A293A293A293A29F328F328F32858
:10006800F328F328F328F328F3283A293A293A29D8
:100078003A293A293A293A293A29F328F328F32838
:10008800F328F328F328F3283A293A293A293A2970
:100098003A293A293A293A293A29F328F328F32818
:1000A800F328F328F328F3283A293A293A293A2950
:1000B8003A293A293A293A293A29BC183A293C1DB9
:1000C8003829200021308700403086000430860718
:1000D8000108031D7328860A010803193C293014F6
:1000E8000830AD003D140900BC183A293C1D3A29D6
:1000F8002000213087004030860004308607010840
:10010800031D8A28860A010803193C29301408307F
:10011800AD000900BC183A293C1D3A2920002130BD
:10012800870040308600043086070108031DA02898
:10013800860A010803193C2930140830AD0009006B
:10014800BC183A293C1D3A2920002130870040304C
:100158008600043086070108031DB628860A0108B0
:1001680003193C2930140830AD000900BC183A299D
:100178003C1D3A2920002130870040308600043099
:1001880086070108031D3C29860A01300106031D64
:100198003C2930140830AD000900BC18F2283C1D79
:1001A800D7283829090020002130870040308600F0
:1001B800043086070108031D3C29860AFE30010722
:1001C80003183C29213085009030840004308407CE
:1001D8000108800030140830AD000900090009004A
:1001E8000430A30029001512200020308700B03009
:1001F800860008308607810120308700B0308600ED
:10020800033086070108AA00AF00C9000230AA021D
:100218008101212920308700B03086000A30860706
:1002280021308500403084002F08AA000108800092
:10023800860A840AAA0B1A2908000E2120002130F8
:1002480087004030860001082506031D4429083030
:100258002F06031D4429860A0330010603196C2959
:1002680006300106031971293B140900BB14090063
:100278003B150900BB1509003B160900BB16090010
:1002880020308700B03086000A3086078101860A50
:10029800C90B4A292900151609002000FF30A800BB
:1002A800FF30A90020308700B03086000A3086076A
:1002B8000108A700C425860AAA0B5C29290801069B
:1002C800031D4429860A28080106031D44292129FB
:1002D8002000F930BC05BC1475292000F930BC0594
:1002E8003C15200021308700403086000230860708
:1002F8000108CC00860A0108CD00A030CD020030EC
:10030800CC3B4D08CA000D2888311F2580310900D3
:100318009110BA1C932948080319C621C803301E36
:10032800992924080319B029A40320308700B03084
:10033800860008308607011C090020008603010892
:10034800031DAC29200023080319F428A30309007E
:1003580081010430A30009000430A400C10A30124E
:100368008B100B16B21E09002130850090308400D6
:10037800153084070530840701308002840300307B
:10038800803B09000230C8000130C7070030C63D75
:1003980008000B1027009618D4211619D721090038
:1003A8009610270008001611200008008B10301A3C
:1003B800090030160B1209002000FF30A800FF309A
:1003C800A90020308700B03086000A30860701086F
:1003D800A700C425860AAA0BEB2929088100860AEA
:1003E8002808810008002100723099000030980028
:1003F80011309A00C830950040308B002100003041
:1004080091000030920000309300003094002100E9
:1004180000309D0000309E0023008C0190012800D0
:100428008C018D0120002100C0308C00FF308D0030
:1004380000308E000F308F00FF3090002600003013
:100448008C00F6308D00220000308C0000308D00CA
:1004580000308E0000308F000030900027008C01A3
:100468008D0120008C018D018E018F0190012500E6
:100478008C018D0120003126FA258831082580312C
:10048800E925F225F625280010308D0021003130AD
:100498009D00C0309E00200036262500DF309E00DB
:1004A8000F309F0028009C30960028007F3097006E
:1004B80026003230910026000C30930027000030CF
:1004C8009500003094002000A50120008D1E6E2AA2
:1004D80027000C14200027008D110B168B15210006
:1004E800941691148B1720000230C8000430A40021
:1004F80022000C168C160E100E118E108E11200074
:100508000430A500872A20003B184F23BB1863231B
:100518003B197123BB197F233B1A8D23BB1A9B23DD
:1005280030187225872A3A1A0800B61808001018D9
:10053800080022000E112000C3012000B21236105C
:1005480021308500903084001530840704308407FA
:100558008001840A800121308500903084001530A4
:100568008407073084070030800027000030A3008C
:10057800200008003A1A0800B51808000D1DFD2AC9
:100588000130D1070030D03DFD305007031C080072
:100598000C305107031C080022000E102000B11374
:1005A800B112BA10213085009030840007308407DA
:1005B800003080000030C200351027000030A30052
:1005C80020003C18CA2B08003A1A0800B518080081
:1005D8000D19FD2A0130D1070030D03DFD305007FC
:1005E800031C08000C305107031C0800B113311319
:1005F8001F2BD30A9C305307031C0800D301D101D9
:10060800D00108003A1A0800B51808003514270068
:100618000130A30020003112213085009030840081
:1006280007308407043080000130C20022000E1415
:1006380020000D19292B2000B1163113BA14C60158
:10064800C701D001D101D301080020003117B11230
:10065800BA14C601C701D001D101D30108003A1A62
:100668000800B61808003212101C080027000130D4
:10067800A300200036142130850090308400153006
:100688008407073084070130800022008E110E1580
:100698002000B21608003B1020308700B0308600DA
:1006A8000A308607860A80308104860A0130810074
:1006B8000330AA00E0210530AD0030140800BB105B
:1006C80020308700B03086000A308607860A8030DE
:1006D8008104860A023081005C2B3B1120308700A0
:1006E800B03086000A308607860A80308104860A80
:1006F800033081005C2BBB1120308700B0308600AE
:100708000A308607860A80308104860A0430810010
:100718005C2B3B1220308700B03086000A308607F9
:10072800860A80308104860A053081005C2BBB1262
:1007380020308700B03086000A308607860A80306D
:100748008104860A063081005C2B3A1A08000800EA
:10075800B11C080027000130A3002000080031194F
:10076800F32BB1195C2C21308500903084000008EF
:10077800031DDC2B840A0008031DDC2B840A0008F7
:10078800031D462C840A0008031D462CB110BA101C
:10079800C601C701213085009030840007308407E6
:1007A80000308000B51027000030A30020000800AA
:1007B80020000D1D080022000E148E10200021308C
:1007C8008500903084000730840701308000C00124
:1007D8003115BA14C601C7010D192B2CBA112130D5
:1007E8008500903084000008031DFF2B840A000850
:1007F800031DFF2B0F2CBA1D3C2C2D2C2000C001F3
:1008080021308500903084000008031D142C840AD0
:100818000008031D142C22000E10200031110800BE
:1008280020002130850090308400840A0130800245
:1008380084030030803B21308500903084000530EF
:1008480084070130800784030030803D0800BA1512
:10085800F32B0D1908004608031D372CFE304707F7
:10086800031C0800372C2000C601C701BA11080074
:100878000D1D08004608031D022CFE304707031C07
:100888000800022C22000E148E142000213085004E
:100898009030840007308407013080000D1D080067
:1008A800C001B115BA14C601C7010D19982CBA11A7
:1008B8002130850090308400023084070008031D31
:1008C8006A2C840A0008031D6A2C7B2CBA1DA62CEE
:1008D8009A2CC001213085009030840002308407B2
:1008E8000008031D802C840A0008031D802C2200A8
:1008F8000E102000B1110800200021308500903032
:100908008400033084070130800284030030803B78
:100918002130850090308400053084070130800242
:1009280084030030803B0800BA155C2C0D190800C0
:100938004608031DA42CFE304707031C0800A42CFE
:10094800BA1108000D1D08004608031D6D2CFE3065
:100958004707031C08006D2C36180800B21C080055
:1009680027000130A3002000B6143219F42CB21964
:100978003F2D213085009030840015308407000811
:10098800031DE42C840A0008031DE42C840A0008D3
:10099800031D2F2D840A0008031D2F2D2000B210DF
:1009A8002130850090308400153084070730840793
:1009B80000308000B61027000030A3002000080097
:1009C80022000E158E112000213085009030840001
:1009D800153084070730840701308000C1013215C3
:1009E800101C072D410803190800C101213085009A
:1009F80090308400153084070008031D152D840AE3
:100A08000008031D152D2130850090308400153015
:100A180084078001840A800122000E11200032110F
:100A28000800213085009030840015308407840A3E
:100A38000130800284030030803B213085009030F3
:100A48008400153084070530840701308002840350
:100A58000030803B080022000E158E152000213042
:100A680085009030840015308407073084070130F2
:100A78008000C101B215410803190800C1012130E5
:100A88008500903084001530840702308407000800
:100A9800031D572D840A0008031D572D22000E112F
:100AA8002000B211080021308500903084001530F4
:100AB8008407033084070130800284030030803BC0
:100AC8002130850090308400153084070530840774
:100AD8000130800784030030803D080020003A265A
:100AE80020308700B03086000A30860727008D1531
:100AF80020002900961C7D2D290001089200200065
:100B0800860AAD0B7D2D2900961C872D27008D1197
:100B180029001516200030100800210031309D00F2
:100B2800C0309E00FC01FD012000522652265226AC
:100B380021009D149D189E2D21001C08FC001B08F7
:100B4800FD002000080020308500BA3084000830FD
:100B5800F1000008F20022001013F21B9016F21F99
:100B680090121017F20DF10BAF2D0830F100840A26
:100B78000008F200F00BAF2D9012101320000800AF
:100B880020002708A9060930A600A603260803198D
:100B9800D72D0310A80CA90C031CC92DA030A8063A
:100BA8000130A906C92D200008000830F0002700F0
:100BB8000C12F11B8C16F11F8C120C16F10DF00B98
:100BC800DB2D0C128C1220000800200015309C0030
:100BD800A7309B000430A3002000080021009114D6
:100BE8002000080020001C15200008002030870085
:100BF800003086000330F100FF30F000810103105F
:100C0800013086070030873DF00B022EFF30F000E0
:100C1800F10B022E2000080023007E089100151316
:100C2800951315141308FF00200008008B132300E8
:100C38007E0891007F0893001513951315155530FC
:100C48009600AA30960095149518282E23001511A1
:100C580020008B1708003126312632263626362604
:100C6800362636263926382639263A263B263F2682
:100C78003F263F263F263130A000A1000A30A200BF
:100C8800452E0000A00B452E2108A000A20B452EE2
:100C98000800522652265226522652265B265B26EA
:100CA8005B265B265B265B265B265B265B260000B5
:100CB800000000000000000000000000000000002C
:100CC8000000000000000000000000000000080014
:101A000020308700B03086000808C23F20001C2D1F
:101A100029000030940033309300290000309700F3
:101A200029002430960029009030950026008D1161
:101A300027008D1120000800423F88000800203058
:101A40008700B03086000808C23F200094120A3098
:101A5000860720308500B0308400033084070008FA
:101A6000860729001108810020308700B0308600E9
:101A700003308607810A20308700B03086000730A7
:101A80008607011420308700B030860008308607B2
:061A9000011420001C2DD2
:020000040001F9
:04000E00A409FF182A
:00000001FF
