:020000000528D1
:100008000628D92980312000941ABA289118BE28C8
:100018008B1827290B18FF28090000308A004A0886
:100028000B006528762887289828A928612961293E
:100038006129612961296129612961296129612968
:100048006129BA28BA28BA28BA28BA28BA28612948
:100058006129612961296129612961296129612948
:100068006129BA28BA28BA28BA28BA28BA28612928
:100078006129612961296129612961296129612928
:100088006129BA28BA28BA28BA28BA28BA28BA28B0
:100098006129612961296129612961296129612908
:1000A8006129BA28BA28BA28BA28BA28BA286129E8
:1000B80061296129612961296129612961296129E8
:1000C8006129BC1861293C1D612920308700B030A6
:1000D80086000D3086070108031D7628860A010868
:1000E80003196329BC1861293C1D61292030870048
:1000F800B03086000D3086070108031D7628860A71
:10010800010803196329BC1861293C1D61292030A5
:100118008700B03086000D3086070108031D982837
:10012800860A010803196329BC1861293C1D612945
:1001380020308700B03086000D3086070108031D87
:10014800A928860A010803196329BC1861293C1DDE
:10015800612920308700B03086000D3086070108FD
:10016800031DBA28860A01080319632988311F2547
:10017800803109009110BA1CC52848080319F820D5
:10018800C803301ECB2824080319E228A403203012
:100198008700B030860008308607011C090020005F
:1001A80086030108031DDE282000230803192D29D2
:1001B800A303090081010430A30009000430A4004E
:1001C800C10A30128B100B16B21E090021308500AF
:1001D80040308400153084070530840701308002E0
:1001E80084030030803B09000230C8000130C70793
:1001F8000030C63D08000B10270096180621161976
:10020800092109009610270008001611200012295C
:100218002000C00AF2170D1914291C29270008000C
:1002280027001515141120003A10C601C70112291C
:1002380027001511141520003A14C601C701122908
:10024800C601C70112298B10301A090030160B128B
:1002580009000430A300290015122000203087006F
:10026800B030860008308607810120308700B03022
:100278008600033086070108AA00AF00C9000230D3
:10028800AA0281017829200020308700B03086003A
:100298000A30860701082506031D6B2908302F063A
:1002A800031D6B29860A03300106031993290630BA
:1002B80001060319AA293B140900BB1409003B15C0
:1002C8000900BB1509003B160900BB1609002030C0
:1002D8008700B03086000A3086078101860AC90B7C
:1002E80071292900151609002000FF30A800FF30E9
:1002F800A90020308700B03086000A308607010840
:10030800A700EF25860AAA0B832929080106031DE1
:100318006B29860A28080106031D6B294729F9302D
:10032800BC05BC1420308700B03086000A30860730
:10033800023086070108CC00860A0108CD00A030EB
:10034800CD020030CC3B4D08CA0011282000F930FE
:10035800BC053C1520308700B03086000A3086077F
:10036800023086070108CC00860A0108CD00A030BB
:10037800CD020030CC3B4D08CA0011282000FF30C8
:10038800A800FF30A90020308700B03086000A306E
:1003980086070108A700EF25860AAA0BCD29290898
:1003A8008100860A2808810008002100723099001F
:1003B8000030980011309A00C830950040308B000A
:1003C800210000309100003092000030930000308E
:1003D8009400210000309D0000309E0023008C0115
:1003E800900128008C018D0120002100C0308C0074
:1003F800FF308D0000308E000F308F00FF309000EE
:10040800260000308C00F6308D00220000308C0071
:1004180000308D0000308E0000308F0000309000DA
:1004280027008C018D0120008C018D018E018F0128
:10043800900125008C018D0120005C26252688313D
:100448000825803114261D262126280010308D000D
:10045800210031309D00C0309E002000612625001B
:10046800DF309E000F309F0028009C309600280047
:100478007F30970026003230910026000C30930020
:10048800270000309500003094002000A5010C1BC7
:1004980025148C1BA5148D1B25150D1BA5152000D7
:1004A8008D1E582A27000C14200027008D110B16CA
:1004B8008B152100941691148B1720000230C80068
:1004C8000430A40022000C168C160E100E118E108B
:1004D8008E112700A0010430A100A2010030A30062
:1004E800A4010030A500A6010030A70020008B2A37
:1004F8002000652627008D152900961C802A2900D2
:10050800A530920020002900961C872A7C2A20000A
:100518003B187623BB188A233B199823BB19A623BB
:100528003B1AB423BB1AC223301899258B2AB0185A
:10053800D023321A5A23B21ABE22721A2D23721BE2
:100548000F23F21AE5228B2A2130850040308400DF
:10055800153084070F308407003080008C2A213042
:10056800850040308400153084070F308407FF3041
:1005780080008C2A3A1A0800B618080010180800DB
:1005880022000E112000C3012000B21236102130C3
:1005980085004030840015308407043084078001CA
:1005A800840A80012130850040308400153084079A
:1005B800073084070030800027000030A3002000A7
:1005C80008003A1A0800B51808000D1D242B013040
:1005D800D1070030D03DFD305007031C08000C3017
:1005E8005107031C080022000E102000F213F2121B
:1005F800BA1021308500403084000730840700306D
:1006080080000030C200351027000030A300200011
:100618003C18F12B08003A1A0800B51808000D1903
:10062800242B0130D1070030D03DFD305007031C8A
:1006380008000C305107031C0800F2137213462BF4
:10064800D30A9C305307031C0800D301D101D00101
:1006580008003A1A0800B5180800351427000130B8
:10066800A30020007212213085004030840007303A
:100678008407043080000130C20022000E142000DC
:100688000D19502B2000F2167213BA14C601C701B7
:10069800D001D101D301080020007217F212BA1458
:1006A800C601C701D001D101D30108003A1A0800D8
:1006B800B61808003212101C080027000130A300E9
:1006C800200036142130850040308400153084071E
:1006D800073084070130800022008E110E1520009B
:1006E800B21608003B1020308700B03086000A3070
:1006F8008607860A80308104860A0130810003302B
:10070800AA00C2210530AD0030140800BB1020300B
:100718008700B03086000A308607860A8030810458
:10072800860A02308100832B3B1120308700B030CD
:1007380086000A308607860A80308104860A0330DC
:100748008100832BBB1120308700B03086000A302F
:100758008607860A80308104860A04308100832B4C
:100768003B1220308700B03086000A308607860AA0
:1007780080308104860A05308100832BBB1220302B
:100788008700B03086000A308607860A80308104E8
:10079800860A06308100832B3A1A08000800F21CEA
:1007A800080027000130A3002000080072191A2C45
:1007B800F219832C21308500403084000008031D85
:1007C800032C840A0008031D032C840A0008031D57
:1007D8006D2C840A0008031D6D2CF210BA10C60196
:1007E800C70121308500403084000730840700307D
:1007F8008000B51027000030A3002000080020006A
:100808000D1D080022000E148E10200021308500D6
:10081800403084000730840701308000C001721521
:10082800BA14C601C7010D19522CBA11213085001E
:10083800403084000008031D262C840A0008031D8C
:10084800262C362CBA1D632C542C2000C0012130D4
:100858008500403084000008031D3B2C840A0008F2
:10086800031D3B2C22000E102000721108002000EE
:100878002130850040308400840A013080028403DE
:100888000030803B213085004030840005308407EB
:100898000130800784030030803D0800BA151A2C07
:1008A8000D1908004608031D5E2CFE304707031C7F
:1008B80008005E2C2000C601C701BA1108000D1DF2
:1008C80008004608031D292CFE304707031C0800B2
:1008D800292C22000E148E1420002130850040306F
:1008E800840007308407013080000D1D0800C00116
:1008F800F215BA14C601C7010D19BF2CBA1121305F
:10090800850040308400023084070008031D912CC4
:10091800840A0008031D912CA22CBA1DCD2CC12CD1
:10092800C00121308500403084000230840700086F
:10093800031DA72C840A0008031DA72C22000E10F3
:100948002000F2110800200021308500403084008A
:10095800033084070130800284030030803B21305B
:10096800850040308400053084070130800284030C
:100978000030803B0800BA15832C0D190800460882
:10098800031DCB2CFE304707031C0800CB2CBA11E3
:1009980008000D1D08004608031D942CFE3047076B
:1009A800031C0800942C36180800B21C0800270005
:1009B8000130A3002000B61432191B2DB219662D80
:1009C8002130850040308400153084070008031D5D
:1009D8000B2D840A0008031D0B2D840A0008031D33
:1009E800562D840A0008031D562D2000B210213010
:1009F80085004030840015308407073084070030B4
:100A08008000B61027000030A30020000800220054
:100A18000E158E11200021308500403084001530DD
:100A280084070730840701308000C1013215101C8B
:100A38002E2D410803190800C101213085004030DE
:100A48008400153084070008031D3C2D840A000823
:100A5800031D3C2D2130850040308400153084076B
:100A68008001840A800122000E1120003211080042
:100A7800213085004030840015308407840A013015
:100A8800800284030030803B2130850040308400A0
:100A98001530840705308407013080028403003054
:100AA800803B080022000E158E152000213085009D
:100AB80040308400153084070730840701308000F7
:100AC800C101B215410803190800C1012130850090
:100AD8004030840015308407023084070008031D65
:100AE8007E2D840A0008031D7E2D22000E11200091
:100AF800B211080021308500403084001530840789
:100B0800033084070130800284030030803B2130A9
:100B18008500403084001530840705308407013093
:100B2800800784030030803D0800200065262030BF
:100B38008700B03086000A30860727008D156A26A0
:100B480020002900961CA52D2900010892002000EC
:100B5800860AAD0BA52D2900961CAF2D27008D11F7
:100B68002900151627000130A500200030100800C4
:100B7800210031309D00C0309E00FC01FD012000A5
:100B88007D267D267D2621009D149D18C92D2100D6
:100B98001C08FC001B08FD00200008002030850010
:100BA800BA3084000830F1000008F2002200101367
:100BB800F21B9016F21F90121017F20DF10BDA2D9E
:100BC8000830F100840A0008F200F00BDA2D9012C8
:100BD80010132000080020002708A9060930A600E5
:100BE800A60326080319022E0310A80CA90C031C3F
:100BF800F42DA030A8060130A906F42D2000080025
:100C08000830F00027000C10F11B0C15F11F0C1117
:100C18000C14F10DF00B062E0C100C11200008001E
:100C2800200015309C00A7309B000430A300200052
:100C38000800210091142000080020001C15200045
:100C4800080020308700003086000330F100FF30B4
:100C5800F00081010310013086070030873DF00B5A
:100C68002D2EFF30F000F10B2D2E20000800230060
:100C78007E0891001513951315141308FF00200022
:100C880008008B1323007E0891007F08930015133A
:100C98009513151555309600AA3096009514951899
:100CA800532E2300151120008B1708005C265C26A4
:100CB8005D266126612661266126642663266426F0
:100CC800652666266A266A266A266A263130A000C4
:100CD800A1000A30A200702E0000A00B702E21087F
:100CE800A000A20B702E08007D267D267D267D267D
:100CF8007D26862686268626862686268626862695
:100D08008626862600000000000000000000000083
:100D180000000000000000000000000000000000CB
:060D2800000000000800BD
:101A000020308700B03086000808C23F20001C2D1F
:101A100029000030940033309300290000309700F3
:101A200029002430960029009030950026008D1161
:101A300027008D1120000800423F88000800203058
:101A40008700B03086000808C23F200094120A3098
:101A5000860720308500B0308400033084070008FA
:101A6000860729001108810020308700B0308600E9
:101A700003308607810A20308700B03086000730A7
:101A80008607011420308700B030860008308607B2
:061A9000011420001C2DD2
:020000040001F9
:04000E00A409FF182A
:00000001FF
