:020000000528D1
:100008000628F72A80312000941A1A2891181E28E9
:100018008B1887280B185F28090000308A004A08C7
:100028000B001A281A281A281A281A2888311F2576
:10003800803109009110BA1C252848080319582056
:10004800C803301E2B28240803194228A403203093
:100058008700B030860008308607011C09002000A0
:1000680086030108031D3E282000230803198D2854
:10007800A303090081010430A30009000430A4008F
:10008800C10A30128B100B16B21E090021308500F0
:100098004030840015308407053084070130800221
:1000A80084030030803B09000230C8000130C707D4
:1000B8000030C63D08000B10270096186620161958
:1000C80069200900961027000800161120007228E0
:1000D8002000C00AF2170D1974287C282700080090
:1000E80027001515141120003A10C601C7017228FF
:1000F80027001511141520003A14C601C7017228EB
:10010800C601C70172288B10301A090030160B126D
:1001180009000430A30029001512200020308700B0
:10012800B030860008308607810120308700B03063
:100138008600033086070108AA00AF00C900023014
:10014800AA028101D828200020308700B03086001C
:100158000A30860701082506031DCB2808302F061C
:10016800031DCB28860A033001060319F32806303D
:1001780001060319BD293B140900BB1409003B15EE
:100188000900BB1509003B160900BB160900203001
:100198008700B03086000A3086078101860AC90BBD
:1001A800D1282900151609002000FF30A800FF30CB
:1001B800A90020308700B03086000A308607010881
:1001C800A7000D27860AAA0BE32829080106031DA4
:1001D800CB28860A28080106031DCB28A72820302B
:1001E8008700B03086000A30860705308607010888
:1001F800AC0020308700B03086000A308607033014
:100208008607703001070318532980300107031847
:100218005E2920308700B03086000A308607053016
:100228008607023086020108AB00AE00F030AB054D
:1002380010302B060319902920302B060319952915
:1002480030302B0603199C2940302B060319A329AB
:10025800BF280F30AE050310AE0D2E08840703101B
:10026800AC0D2C08AA0020308700B03086000A3078
:100278008607023086072A088100860A000881005E
:10028800860A840AAC0B42292A08AC000330AA0764
:10029800E0222C08AD000530AD07301409002030ED
:1002A8008700B03086000A30860703308607803022
:1002B80081026A2920308700B03086000A3086071C
:1002C80003308607803081020310810D22308500BB
:1002D80030308400010884070310AC0D2C08AA00F4
:1002E80020308700B03086000A3086070230860743
:1002F8002A088100860A00088100840A860AAC0B55
:100308007F292A08AC000330AA07E0222C08AD0098
:100318000530AD07301409002130850040308400D5
:100328002D292130850040308400153084072D297F
:1003380021308500403084002A3084072D2921305F
:100348008500403084003F3084072D292030850007
:10035800B03084000A30840722308700403086009D
:100368000830F40000088100840A860AF40BB629D4
:1003780008002000AA2120308700B03086000A300B
:100388008607033086078030010703181A2A2030B1
:100398008700B03086000A308607033086070108D8
:1003A800AB00AC00AE00F030AB050F30AC05103040
:1003B8002B060319C22A20302B060319C82A30300D
:1003C8002B060319D02A40302B060319D82ABF2838
:1003D8000310AC0D2C08840720308700B03086004D
:1003E8000A3086070430860701088000860A840AD6
:1003F800010880000830AD0030142E08AC000F3022
:10040800AC0509302C0603199F2A00302C06031965
:100418007F2A01302C0603198F2A04302C06031971
:10042800732A3910B9103911B91109000830AD0013
:1004380030148330010603192222152A860A860AF7
:10044800010803196A2A27000230A7000230A30016
:1004580022000E100E1120003A1632127212721378
:10046800F212B010B2103610B610BA10B51035101E
:10047800F2102130850040308400073084070030B6
:100488008000213085004030840015308407073013
:1004980084070030800021308500403084008001CE
:1004A800840A8001840A8001840A8001840A213038
:1004B800850040308400153084078001840A80015B
:1004C800840A8001840A8001840A08002700003019
:1004D800A7000030A30020002C223A120800391887
:1004E8007822B9187D22152A22008E102000721653
:1004F80008003216080039188422B9188C22152AE7
:1005080022008E1020003C147216B014F214080059
:10051800B014B214080039189422B9189C22152A6C
:1005280022008E1420003C147216B014F214080035
:10053800B014B21408003918A422B918B222152A26
:100548002130850040308400073084070430800063
:100558000130C20022000E10200008002130850062
:100568004030840015308407073084070430800049
:100578000130C30022000E11200008003914213078
:10058800850040308400EC29B914213085004030C2
:10059800840015308407EC29391521308500403056
:1005A80084002A308407EC29B915213085004030B1
:1005B80084003F308407EC292000FF30A800FF307A
:1005C800A90020308700B03086000A30860701086D
:1005D800A7000D27860AAA0BEB2A29088100860A9C
:1005E8002808810008002100723099000030980026
:1005F80011309A00C830950040308B00210000303F
:1006080091000030920000309300003094002100E7
:1006180000309D0000309E0023008C0190012800CE
:100628008C018D0120002100C0308C00FF308D002E
:1006380000308E000F308F00FF3090002600003011
:100648008C00F6308D00220000308C0000308D00C8
:1006580000308E0000308F000030900027008C01A1
:100668008D0120008C018D018E018F0190012500E4
:100678008C018D0120007A27432788310825803195
:1006880032273B273F27280010308D0021003130CA
:100698009D00C0309E0020007F272500DF309E008F
:1006A8000F309F0028009C30960028007F3097006C
:1006B80026003230910026000C30930027000030CD
:1006C8009500003094002000A5010C1B25148C1BFC
:1006D800A5148D1B25150D1BA51520008D1E762B29
:1006E80027000C14200027008D110B168B152100F4
:1006F800941691148B1720000230C8000430A4000F
:1007080022000C168C160E100E118E108E1127005A
:10071800A0010430A100A2010030A300A401003010
:10072800A500A6010030A7002000A92B20008327E0
:1007380027008D152900961C9E2B2900A5309200B4
:1007480020002900961CA52B9A2B20003B189424E6
:10075800BB18A8243B19B624BB19C4243B1AD224BD
:10076800BB1AE0243018B726A92BB018EE24321A89
:100778007824B21ADC23721A4B24721B2D24F21A25
:100788000324A92B213085004030840015308407CC
:100798000F30840700308000AA2B213085004030BC
:1007A8008400153084070F308407FF308000AA2B9F
:1007B8003A1A0800B61808001018080022000E118E
:1007C8002000C3012000B2123610213085004030CD
:1007D800840015308407043084078001840A80016E
:1007E80021308500403084001530840707308407A5
:1007F8000030800027000030A300200008003A1ACB
:100808000800B51808000D1D422C0130D107003032
:10081800D03DFD305007031C08000C305107031C65
:10082800080022000E102000F213F212BA10213034
:100838008500403084000730840700308000003095
:10084800C200351027000030A30020003C180F2DEF
:1008580008003A1A0800B51808000D19422C013092
:10086800D1070030D03DFD305007031C08000C3084
:100878005107031C0800F2137213642CD30A9C302E
:100888005307031C0800D301D101D00108003A1A0C
:100898000800B5180800351427000130A30020000F
:1008A80072122130850040308400073084070430FC
:1008B80080000130C20022000E1420000D196E2C99
:1008C8002000F2167213BA14C601C701D001D10173
:1008D800D301080020007217F212BA14C601C7012A
:1008E800D001D101D30108003A1A0800B61808004F
:1008F8003212101C080027000130A3002000361413
:100908002130850040308400153084070730840783
:100918000130800022008E110E152000B21608004A
:100928003B1020308700B03086000A308607860AE0
:1009380080308104860A013081000330AA00E02259
:100948000530AD0030140800BB1020308700B030EF
:1009580086000A308607860A80308104860A0230BB
:100968008100A12C3B1120308700B03086000A306E
:100978008607860A80308104860A03308100A12C0C
:10098800BB1120308700B03086000A308607860AFF
:1009980080308104860A04308100A12C3B1220306B
:1009A8008700B03086000A308607860A80308104C6
:1009B800860A05308100A12CBB1220308700B03098
:1009C80086000A308607860A80308104860A063047
:1009D8008100A12C3A1A08000800F21C0800270020
:1009E8000130A300200008007219382DF219A12D3A
:1009F80021308500403084000008031D212D840A21
:100A08000008031D212D840A0008031D8B2D840A6C
:100A18000008031D8B2DF210BA10C601C701213042
:100A28008500403084000730840700308000B5100E
:100A380027000030A3002000080020000D1D08003A
:100A480022000E148E1020002130850040308400D2
:100A58000730840701308000C0017215BA14C6013E
:100A6800C7010D19702DBA1121308500403084005E
:100A78000008031D442D840A0008031D442D542D2D
:100A8800BA1D812D722D2000C00121308500403013
:100A980084000008031D592D840A0008031D592DE0
:100AA80022000E102000721108002000213085005D
:100AB80040308400840A0130800284030030803B87
:100AC80021308500403084000530840701308007DC
:100AD80084030030803D0800BA15382D0D19080030
:100AE8004608031D7C2DFE304707031C08007C2D9B
:100AF8002000C601C701BA1108000D1D08004608EC
:100B0800031D472DFE304707031C0800472D220010
:100B18000E148E14200021308500403084000730E8
:100B28008407013080000D1D0800C001F215BA14B9
:100B3800C601C7010D19DD2DBA11213085004030DD
:100B48008400023084070008031DAF2D840A0008C2
:100B5800031DAF2DC02DBA1DEB2DDF2DC001213097
:100B6800850040308400023084070008031DC52D2D
:100B7800840A0008031DC52D22000E102000F21162
:100B880008002000213085004030840003308407AD
:100B98000130800284030030803B213085004030E2
:100BA8008400053084070130800284030030803BD4
:100BB8000800BA15A12D0D1908004608031DE92DD6
:100BC800FE304707031C0800E92DBA1108000D1D67
:100BD80008004608031DB22DFE304707031C080015
:100BE800B22D36180800B21C080027000130A300F7
:100BF8002000B6143219392EB219842E21308500FE
:100C080040308400153084070008031D292E840A0B
:100C18000008031D292E840A0008031D742E840A67
:100C28000008031D742E2000B210213085004030CA
:100C38008400153084070730840700308000B61020
:100C480027000030A3002000080022000E158E1196
:100C5800200021308500403084001530840707309B
:100C6800840701308000C1013215101C4C2E410848
:100C780003190800C1012130850040308400153077
:100C880084070008031D5A2E840A0008031D5A2EE3
:100C98002130850040308400153084078001840AA3
:100CA800800122000E112000321108002130850039
:100CB8004030840015308407840A013080028403A0
:100CC8000030803B21308500403084001530840797
:100CD800053084070130800284030030803B08001F
:100CE80022000E158E15200021308500403084002A
:100CF800153084070730840701308000C101B21520
:100D0800410803190800C1012130850040308400E2
:100D180015308407023084070008031D9C2E840ABE
:100D28000008031D9C2E22000E112000B21108009D
:100D38002130850040308400153084070330840753
:100D48000130800284030030803B21308500403030
:100D58008400153084070530840701308007840338
:100D68000030803D08002000832720308700B03005
:100D780086000A30860727008D158827200029005D
:100D8800961CC32E2900010892002000860AAD0B8C
:100D9800C32E2900961CCD2E27008D11290015166B
:100DA80027000130A5002000301008002100313054
:100DB8009D00C0309E00FC01FD0120009B279B2761
:100DC8009B2721009D149D18E72E21001C08FC007C
:100DD8001B08FD002000080020308500BA30840080
:100DE8000830F1000008F20022001013F21B9016E0
:100DF800F21F90121017F20DF10BF82E0830F100C7
:100E0800840A0008F200F00BF82E9012101320004C
:100E1800080020002708A9060930A600A60326080E
:100E28000319202F0310A80CA90C031C122FA030A3
:100E3800A8060130A906122F200008000830F0008B
:100E480027000C10F11B0C15F11F0C110C14F10DDF
:100E5800F00B242F0C100C11200008002000153076
:100E68009C00A7309B000430A3002000080021004C
:100E780091142000080020001C15200008002030D4
:100E88008700003086000330F100FF30F000810158
:100E98000310013086070030873DF00B4B2FFF30E1
:100EA800F000F10B4B2F2000080023007E08910072
:100EB8001513951315141308FF00200008008B1351
:100EC80023007E0891007F089300151395131515CC
:100ED80055309600AA30960095149518712F230066
:100EE800151120008B1708007A277A277B277F2780
:100EF8007F277F277F2782278127822783278427A9
:100F080088278827882788273130A000A1000A3041
:100F1800A2008E2F0000A00B8E2F2108A000A20B8C
:100F28008E2F08009B279B279B279B279B27A4275F
:100F3800A427A427A427A427A427A427A427A42751
:100F48000000000000000000000000000000000099
:100F58000000000000000000000000000000000089
:020F680008007F
:101A000020308700B03086000808C23F20001C2D1F
:101A100029000030940033309300290000309700F3
:101A200029002430960029009030950026008D1161
:101A300027008D1120000800423F88000800203058
:101A40008700B03086000808C23F200094120A3098
:101A5000860720308500B0308400033084070008FA
:101A6000860729001108810020308700B0308600E9
:101A700003308607810A20308700B03086000730A7
:101A80008607011420308700B030860008308607B2
:061A9000011420001C2DD2
:020000040001F9
:04000E00A409FF182A
:00000001FF
