:020000000528D1
:1000080006281B2980312000941AAC289118B028A2
:100018008B18FE280B18F12809000430A3002900CA
:100028001512200020308700B0308600083086077F
:10003800810120308700B030860003308607010830
:10004800AA00AF00C9000230AA0281013E28203070
:100058008700B03086000A3086072130850040309E
:1000680084002F08AA0001088000860A840AAA0BC7
:10007800372808002B2020002130870040308600D8
:1000880001082506031D6128860A033001060319A5
:100098008928063001060319932810300106031930
:1000A8008E283B140900BB1409003B150900BB1539
:1000B80009003B160900BB16090020308700B03044
:1000C80086000A3086078101860AC90B672829003D
:1000D800151609002000FF30A800FF30A9002030C5
:1000E8008700B03086000A3086070108A700EE2492
:1000F800860AAA0B792829080106031D6128860AA1
:1001080028080106031D61283E282000F130BC059F
:10011800BC1497282000F130BC05BC159728200096
:10012800F130BC053C1520002130870040308600A6
:10013800023086070108CC00860A0108CD00A030ED
:10014800CD020030CC3B4D08CA002000B016090093
:1001580088311F25803109009110BA1CB72848083A
:100168000319EA20C803301EBD2824080319D4281F
:10017800A40320308700B030860008308607011CB1
:100188000900200086030108031DD0282000230849
:1001980003191128A303090081010430A3000900F1
:1001A8000430A400C10A30128B100B16B21E0900CD
:1001B800213085009030840015308407053084078D
:1001C8000130800284030030803B09000230C800FF
:1001D8000130C7070030C63D08000B1027009618ED
:1001E800F8201619FB2009009610270008001611A0
:1001F800200008008B10301A090030160B12090075
:100208002000FF30A800FF30A90020308700B03060
:1002180086000A3086070108A700EE24860AAA0B82
:100228000F2929088100860A280881000800210072
:10023800723099000030980011309A00C83095004B
:1002480040308B00210000309100003092000030D7
:10025800930000309400210000309D0000309E0083
:1002680023008C01900128008C018D0120002100C1
:10027800C0308C00FF308D0000308E000F308F00B2
:10028800FF309000260000308C00F6308D002200F0
:1002980000308C0000308D0000308E0000308F0060
:1002A8000030900027008C018D0120008C018D0109
:1002B8008E018F01900125008C018D0120005B25A6
:1002C800242588310825803113251C252025280060
:1002D80010308D00210031309D00C0309E0020007C
:1002E80060252500DF309E000F309F0028009C30DD
:1002F800960028007F3097002600323091002600B3
:100308000C30930027000030950000309400200046
:10031800A50120008D1E922927000C14200027001B
:100328008D110B168B152100941691148B17200034
:100338000230C8000430A40022000C168C160E10DF
:100348000E118E108E1120000430A500AB2920005C
:10035800B01ABD213B187A22BB188E223B199C2269
:10036800BB19AA223B1AB822BB1AC62230189D24F0
:10037800AB29B01288310020803108003A1A0800F1
:10038800B61808001018080022000E112000C3013A
:100398002000B212361021308500903084001530CC
:1003A8008407043084078001840A80012130850095
:1003B80090308400153084070730840700308000AF
:1003C80027000030A300200008003A1A0800B518DA
:1003D80008000D1D282A0130D1070030D03DFD301E
:1003E8005007031C08000C305107031C08002200AA
:1003F8000E102000B113B112BA10213085009030D0
:10040800840007308407003080000030C2003510B7
:1004180027000030A30020003C18F52A08003A1AEB
:100428000800B51808000D19282A0130D107003036
:10043800D03DFD305007031C08000C305107031C49
:100448000800B11331134A2AD30A9C305307031CFE
:100458000800D301D101D00108003A1A0800B518E4
:100468000800351427000130A30020003112213084
:100478008500903084000730840704308000013004
:10048800C20022000E1420000D19542A2000B116B3
:100498003113BA14C601C701D001D101D301080034
:1004A80020003117B112BA14C601C701D001D10119
:1004B800D30108003A1A0800B61808003212101CB6
:1004C800080027000130A3002000361421308500E1
:1004D800903084001530840707308407013080008D
:1004E80022008E110E152000B21608003B10203095
:1004F8008700B03086000A308607860A803081047B
:10050800860A013081000330AA0004210530AD00BD
:1005180030140800BB1020308700B03086000A3045
:100528008607860A80308104860A02308100872A7D
:100538003B1120308700B03086000A308607860AD3
:1005480080308104860A03308100872ABB1120305D
:100558008700B03086000A308607860A803081041A
:10056800860A04308100872A3B1220308700B03089
:1005780086000A308607860A80308104860A05309C
:100588008100872ABB1220308700B03086000A30ED
:100598008607860A80308104860A06308100872A09
:1005A8003A1A08000800B11C080027000130A3000F
:1005B8002000080031191E2BB119872B2130850026
:1005C800903084000008031D072B840A0008031DCF
:1005D800072B840A0008031D712B840A0008031DD9
:1005E800712BB110BA10C601C701213085009030B7
:1005F80084000730840700308000B51027000030E1
:10060800A3002000080020000D1D080022000E1481
:100618008E10200021308500903084000730840738
:1006280001308000C0013115BA14C601C7010D1987
:10063800562BBA1121308500903084000008031D24
:100648002A2B840A0008031D2A2B3A2BBA1D672B74
:10065800582B2000C001213085009030840000080C
:10066800031D3F2B840A0008031D3F2B22000E1098
:1006780020003111080020002130850090308400CE
:10068800840A0130800284030030803B21308500D9
:1006980090308400053084070130800784030030DF
:1006A800803D0800BA151E2B0D1908004608031DC9
:1006B800622BFE304707031C0800622B2000C6018E
:1006C800C701BA1108000D1D08004608031D2D2B8F
:1006D800FE304707031C08002D2B22000E148E1431
:1006E80020002130850090308400073084070130D5
:1006F80080000D1D0800C001B115BA14C601C7015C
:100708000D19C32BBA1121308500903084000230B6
:1007180084070008031D952B840A0008031D952BE8
:10072800A62BBA1DD12BC52BC001213085009030D6
:100738008400023084070008031DAB2B840A0008DC
:10074800031DAB2B22000E102000B1110800200061
:100758002130850090308400033084070130800206
:1007680084030030803B21308500903084000530C0
:1007780084070130800284030030803B0800BA15EA
:10078800872B0D1908004608031DCF2BFE3047079D
:10079800031C0800CF2BBA1108000D1D08004608DD
:1007A800031D982BFE304707031C0800982B3618AA
:1007B8000800B21C080027000130A3002000B6146E
:1007C80032191F2CB2196A2C213085009030840010
:1007D800153084070008031D0F2C840A0008031D28
:1007E8000F2C840A0008031D5A2C840A0008031DD4
:1007F8005A2C2000B210213085009030840015302A
:1008080084070730840700308000B61027000030C6
:10081800A3002000080022000E158E1120002130B0
:100828008500903084001530840707308407013034
:100838008000C1013215101C322C41080319080030
:10084800C1012130850090308400153084070008EC
:10085800031D402C840A0008031D402C213085000C
:1008680090308400153084078001840A80012200BA
:100878000E112000321108002130850090308400CC
:1008880015308407840A0130800284030030803BDD
:1008980021308500903084001530840705308407A6
:1008A8000130800284030030803B080022000E15CE
:1008B8008E15200021308500903084001530840783
:1008C8000730840701308000C101B21541080319BF
:1008D8000800C1012130850090308400153084075C
:1008E800023084070008031D822C840A0008031DB7
:1008F800822C22000E112000B21108002130850040
:10090800903084001530840703308407013080025A
:1009180084030030803B21308500903084001530FE
:100928008407053084070130800784030030803D48
:100938000800642520308700B03086000A3086071A
:1009480027008D1520002900961CA72C29000108D6
:1009580092002000860AAD0BA72C2900961CB12C0A
:1009680027008D11290015162000301008002100DD
:1009780031309D00C0309E00FC01FD0120007C2527
:100988007C257C2521009D149D18C82C21001C085D
:10099800FC001B08FD002000080020308500BA304C
:1009A80084000830F1000008F20022001013F21B46
:1009B8009016F21F90121017F20DF10BD92C083077
:1009C800F100840A0008F200F00BD92C90121013E1
:1009D8002000080020002708A9060930A600A60361
:1009E80026080319012D0310A80CA90C031CF32CCD
:1009F800A030A8060130A906F32C20000800083012
:100A0800F00027000C12F11B8C16F11F8C120C162B
:100A1800F10DF00B052D0C128C122000080020009F
:100A280015309C00A7309B000430A300200008006C
:100A3800210091142000080020001C152000080047
:100A480020308700003086000330F100FF30F000CE
:100A580081010310013086070030873DF00B2C2DF3
:100A6800FF30F000F10B2C2D2000080023007E0839
:100A780091001513951315141308FF0020000800A2
:100A88008B1323007E0891007F089300151395139C
:100A9800151555309600AA30960095149518522DC4
:100AA8002300151120008B1708005B255B255C25AA
:100AB80060256025602560256325622563256425FA
:100AC800652569256925692569253130A000A100BA
:100AD8000A30A2006F2D0000A00B6F2D2108A00086
:100AE800A20B6F2D08007C257C257C257C257C2588
:100AF800852585258525852585258525852585259E
:100B08008525000000000000000000000000000033
:100B180000000000000000000000000000000000CD
:040B280000000800C1
:10100000200008308A004A080B0061289428C7286D
:10101000FA282D295728572857285728572857285E
:101020005728572857285728572860298329832964
:10103000832983298329832983298329832957287D
:101040005728572857285728572883298329832921
:1010500083298329832983298329572857285728B7
:101060005728572857285728572883298329832901
:1010700083298329832983295728572857285728C4
:1010800057285728572857285728832983298329E1
:1010900083298329832983295728572857285728A4
:1010A000572857285728572857283B140800BB149F
:1010B00008003B150800BB1508003B160800BB16CE
:1010C00008002000BC185728BC197B283C1D552857
:1010D0002000213087004030860004308607010858
:1010E000031D7628860A0108031959283014083090
:1010F000AD003D14080020002130870040308600FC
:1011000005308607FE30010703185928860A023089
:101110000106031D5928860A0108031D7628860A40
:1011200001080319592876282000BC185728BC1933
:10113000AE283C1D55282000213087004030860015
:10114000043086070108031DA928860A010803192F
:10115000592830140830AD00BD140800200021309B
:1011600087004030860005308607FE3001070318EF
:101170005928860A02300106031D5928860A0108EB
:10118000031DA928860A010803195928A928200047
:10119000BC185728BC19E1283C1D552820002130D7
:1011A000870040308600043086070108031DDC28D4
:1011B000860A01080319592830140830AD003D157E
:1011C0000800200021308700403086000530860767
:1011D000FE30010703185928860A02300106031D54
:1011E0005928860A0108031DDC28860A010803190C
:1011F0005928DC282000BC185728BC1914293C1D8C
:1012000055282000213087004030860004308607B2
:101210000108031D0F29860A0108031959283014F3
:101220000830AD00BD150800200021308700403097
:10123000860005308607FE30010703185928860A04
:1012400002300106031D5928860A0108031D0F29D3
:10125000860A0108031959280F292000BC185728AD
:10126000BC1947293C1D55282000213087004030FB
:101270008600043086070108031D4229860A0108FA
:101280000319592830140830AD003D16080020001D
:10129000213087004030860005308607FE30010788
:1012A00003185928860A02300106031D5928860AA8
:1012B0000108031D4229860A0108031959284229F9
:1012C000BC1882293C196729BC19672955282000B8
:1012D0002130870040308600043086070108031D56
:1012E0005928860AFE300107031859282130850045
:1012F00090308400043084070108800030140830E6
:08130000AD000900090009001D
:101A000020308700B03086000808C23F20001C2D1F
:101A100029000030940033309300290000309700F3
:101A200029002430960029009030950026008D1161
:101A300027008D1120000800423F88000800203058
:101A40008700B03086000808C23F200094120A3098
:101A5000860720308500B0308400033084070008FA
:101A6000860729001108810020308700B0308600E9
:101A700003308607810A20308700B03086000730A7
:101A80008607011420308700B030860008308607B2
:061A9000011420001C2DD2
:020000040001F9
:04000E00A409FF182A
:00000001FF
